:10000000A1C0C5C0C4C0C3C0C2C0C2C4C0C0BFC0FC
:10001000BEC0BDC0BCC0BBC0BAC09DC4E7C3000069
:1000200000003600000000003700005EBCE2613FC7
:10003000DD83C29C7E20A3FD1F419DC3217FFCA2C6
:10004000401E5F01E3BD3E6082DC237D9FC1421CF8
:10005000FEA0E1BF5D0380DE3C62BEE0025CDF81AA
:10006000633D7C22C09E1D43A1FF4618FAA4277958
:100070009BC584DA3866E5BB5907DB856739BAE486
:1000800006581947A5FB7826C49A653BD987045AB8
:10009000B8E6A7F91B45C6987A24F8A6441A99C76A
:1000A000257B3A6486D85B05E7B98CD2306EEDB318
:1000B000510F4E10F2AC2F7193CD114FADF3702E46
:1000C000CC92D38D6F31B2EC0E50AFF1134DCE9078
:1000D000722C6D33D18F0C52B0EE326C8ED0530D2A
:1000E000EFB1F0AE4C1291CF2D73CA947628ABF5D8
:1000F00017490856B4EA6937D58B5709EBB5366806
:100100008AD495CB2977F4AA4816E9B7550B88D637
:10011000346A2B7597C94A14F6A8742AC896154BE9
:10012000A9F7B6E80A54D7896B35000000003800FB
:100130000202020202020102040810200102000071
:100140000400C10711241FBECFE5D2E0DEBFCDBF42
:1001500010E0A0E6B0E0EEECF4E102C005900D92F4
:10016000A636B107D9F720E0A6E6B0E001C01D929F
:10017000AC3CB207E1F710E0C2EAD0E003C021973F
:10018000FE01C1D7C13AD107D1F74CD49EC938CFAF
:10019000EDE3F1E02491E7E3F1E09491E1E3F1E0B4
:1001A000E491EE2349F1222399F0223071F028F4F2
:1001B000213071F42AB52F770AC0233011F0243092
:1001C00039F42CB52F7D2CBD03C02AB52F7D2ABD57
:1001D000F0E0EE0FFF1FE65DFE4FA591B4912FB743
:1001E000F894811105C08C91E92FE095E82302C0B5
:1001F000EC91E92BEC932FBF089583E087B9369AF1
:100200003699FECF84B125B190E0922B08950895E0
:10021000FC0190810180F281E02DF8942281892FE8
:100220008095282322832181292B2183A2E0B0E01D
:100230001197F1F72181822381838281892B828327
:10024000A0E1B0E01197F1F780817894E6E6F0E064
:100250003197F1F7982381E009F480E00895FC01DB
:1002600090810180F281E02D892F809560FF12C07E
:10027000F8942281822382838181892B8183A0E16A
:10028000B0E01197F1F78281982B928378948AE6F7
:1002900090E011C0F8942281822382838181892B8E
:1002A0008183AEE7B0E01197F1F78281982B9283BA
:1002B000789486E090E00197F1F70895CF92DF926D
:1002C000EF92FF920F931F93CF93DF931F92CDB7BF
:1002D000DEB76C01E62E08E010E0FF24F39461E045
:1002E0008F2D8E2109F460E0C6014983B8DFFF0C31
:1002F0000150110949810115110589F741110CC0FF
:10030000F894D6011196ED91FC91129791818C9100
:1003100080958923818378940F90DF91CF911F91ED
:100320000F91FF90EF90DF90CF900895CF92DF92E2
:10033000EF92FF920F931F93CF93DF931F92CDB74E
:10034000DEB78C01F62E40E065E57983B7DFCF2C70
:100350007981D72E760188E0E80EF11CF6016191D3
:100360006F0140E0C801AADFCE14DF04B9F70F9097
:10037000DF91CF911F910F91FF90EF90DF90CF9081
:100380000895FC0190810180F281E02DF894228192
:10039000892F8095282322832181292B21837894FA
:1003A000ACEBB3E01197F1F7F894218182238183BC
:1003B0008281892B8283A8E8B0E01197F1F7208130
:1003C0007894A0E3B3E01197F1F78081892321F4B9
:1003D00091E09093B8000895922381E009F080E0C5
:1003E0001092B80008956F927F928F929F92AF9271
:1003F000BF92CF92DF92EF92FF920F931F93CF9312
:10040000DF938C01EB018091BE009091BF00B9DFBA
:10041000882309F443C0B8018091BE009091BF00C9
:1004200085DF40E06EEB8091BE009091BF0046DF1B
:100430008E014E0189E0880E911C7E016090BE0005
:100440007090BF0088E0A82EB12CCC24C394D12C8E
:10045000C301DEDE8111DC28CC0CA1E0AA1AB108B0
:10046000B9F7F701D1927F01E815F90539F78091C5
:10047000BE009091BF0085DF813081F489E0E0E02B
:10048000815049F0D8019D918D01E927F0E0E65DAA
:10049000FF4FE491F5CF81E09885E91380E0DF918B
:1004A000CF911F910F91FF90EF90DF90CF90BF9071
:1004B000AF909F908F907F906F9008956F927F92F2
:1004C0009F92AF92BF92CF92DF92EF92FF920F93E3
:1004D0001F93CF93DF931F92CDB7DEB77C01D62E4B
:1004E000E091BE00F091BF00138615861486DF01EF
:1004F0001B9633961E92AE17BF07E1F7B12CAA24C4
:10050000A3946090BE007090BF00F30185858111B7
:100510005DC0C30136DF81110AC0D3011B961C9256
:100520001B971D961C921D971C961C928BC040E039
:1005300060EFC301C3DE01E0C12C912C11E0C301C7
:1005400067DE682FC301698363DE6981613019F456
:100550008130C1F433C04C2D50E068131CC0F3014E
:100560008385181730F4E40FF51F8381802351F43D
:1005700002C0181739F060E0193060F4D3011C96FE
:100580001C9308C0F301EC0DF11D8381802B838344
:1005900061E009C0912EF301E40FF51F9381802FD4
:1005A000809589238383C3015ADE1F5F000F11F4F6
:1005B000C39401E0B7E0BC1508F0C1CF113430F0AE
:1005C000F3019386911038C0A58636C0D3011B96DF
:1005D0001C921B971D961C921D971C961C9280E0E6
:1005E000F3013396B7019301255F3F4FA701919126
:1005F000DA019D93AD01E217F307C9F7882311F1E2
:10060000BD1014C088E0E0E0815049F0DB019D910D
:10061000BD01E927F0E0E65DFF4FE491F5CFD7019A
:1006200017968C91E81302C081E00CC0B394DB14E0
:1006300008F067CF80E006C0F3018381882331F2A0
:1006400081E0CECF0F90DF91CF911F910F91FF905E
:10065000EF90DF90CF90BF90AF909F907F906F9082
:1006600008958091B2008823E1F3E0918C00F0E0DE
:10067000E357FF4F808190918C009F5F9F70909314
:100680008C009091B20091509093B2000895909197
:10069000AF009031E1F3E0918B00F0E0E256FF4FC4
:1006A000808380918B008F5F8F7080938B0080910F
:1006B000AF008F5F8093AF000895E091B300F09199
:1006C000B400309731F0759B04C08091B200811165
:1006D000099408953FB7F89480918700909188001D
:1006E000A0918900B0918A0022B708B601FE05C02A
:1006F0002F3F19F00196A11DB11D3FBFBA2FA92FA1
:10070000982F8827820F911DA11DB11DBC01CD011D
:1007100043E0660F771F881F991F4A95D1F7089508
:100720008F929F92AF92BF92CF92DF92EF92FF9201
:100730006B017C01CFDF4B015C01C114D104E104EA
:10074000F104E9F0C7DFDC01CB0188199909AA0996
:10075000BB09883E9340A105B10578F321E0C21A98
:10076000D108E108F10888EE880E83E0981EA11CEC
:10077000B11CC114D104E104F10421F7DECFFF90D4
:10078000EF90DF90CF90BF90AF909F908F900895A3
:1007900068DF811104C081E0809381000895813079
:1007A00011F4809380000895CF93DF93C4E7D0E0E5
:1007B00088816DDF89816BDF8A8169DF8B8167DFEB
:1007C000C8E7D0E0888163DF898161DF8A815FDFEC
:1007D0008B815DDFCCE7D0E0888159DF898157DFED
:1007E0008A8155DF8B81DF91CF9151CF1F920F927C
:1007F0000FB60F9211242F933F934F935F936F93F4
:100800007F938F939F93AF93BF93EF93FF938091C9
:10081000B6009091B7008230910509F459C028F4D0
:10082000009761F0019779F185C08430910509F452
:1008300058C030F1059709F45DC07CC08FB18823A2
:1008400031F08FB186959091B50089133EC0789BA9
:1008500067C0E091B300F091B400309739F0809117
:10086000B200882319F08091B2000995E091B000A0
:10087000F091B100309709F0099581E090E052C005
:100880008FB1811122C08091AF008823D1F0E09117
:10089000AE00F0E0E256FF4F80818FB98091AE004C
:1008A0008F5F8F708093AE008091AF0081508093F6
:1008B000AF0082E090E09093B7008093B600B89AC2
:1008C00017C0B8981FB88EE78EB988EA8DB910C0E6
:1008D00083E090E09093B7008093B600B8981FB87B
:1008E00027C085E090E09093B7008093B600B89859
:1008F00080E71FC08091B200803190F4E0919D00AC
:100900008FB1F0E0E357FF4F808380919D008F5FB0
:100910008F7080939D008091B2008F5F8093B200B2
:1009200084E090E09093B7008093B6001FB8B89A27
:100930008EE78EB9FF91EF91BF91AF919F918F910B
:100940007F916F915F914F913F912F910F900FBECB
:100950000F901F9018951F920F920FB60F921124AF
:100960008F931092B7001092B600B898B29B02C055
:10097000B09BFCCFB09902C088EF01C088EA8DB966
:1009800080EF8EB98F910F900FBE0F901F9018952A
:100990001F920F920FB60F9211242F933F938F93B4
:1009A0009F93AF93BF938091830090918400A09117
:1009B0008500B09186003091820026E0230F2D370C
:1009C00020F40296A11DB11D05C029E8230F03964E
:1009D000A11DB11D20938200809383009093840019
:1009E000A0938500B0938600809187009091880045
:1009F000A0918900B0918A000196A11DB11D80933C
:100A0000870090938800A0938900B0938A00BF91DB
:100A1000AF919F918F913F912F910F900FBE0F90AB
:100A20001F901895CF93DF93CDB7DEB763970FB6BE
:100A3000F894DEBF0FBECDBF78948AB582608ABDC0
:100A40008AB581608ABD83B7826083BF83B78160C6
:100A500083BF89B7826089BF80B7826080BF80B75B
:100A6000816080BF8CB580648CBD329A319A309899
:100A7000379A10928C0010929D001092B200109242
:100A8000AE0010928B001092AF0083E18093B5000E
:100A900087B3856087BBC29AC09AB89888EA8DB937
:100AA00080EF8EB984ED93E09093B1008093B00015
:100AB00088EC93E09093B4008093B300E7E3F1E017
:100AC0002491E1E3F1E08491882399F090E0880F8C
:100AD000991FFC01EC5DFF4FA591B491FC01E65D0F
:100AE000FE4F859194918FB7F894EC91E22BEC93A3
:100AF0008FBFAE014F5F5F4F6A01E12CF12C042FD5
:100B0000DA8AC701CCD4F60181936F01FFEFEF1AA7
:100B1000FF0A44E0E416F104A1F789819A81AB81D0
:100B2000BC8180937C0090937D00A0937E00B09365
:100B30007F008CE08093BA00C12CD12C8FE5E82E89
:100B40009FE7B92E2FE1A22E3FE3932E8091BD00A7
:100B500090E0C816D9060CF0A8C06C2DCE010A96FC
:100B6000ADDC8091BA00893028F0182F8D3018F054
:100B70001CE001C019E08A858031D1F0602F7A89AC
:100B8000CE010A9630DC882389F08D818F3361F0A5
:100B900020F48F3159F489E00CC08F3519F08F376C
:100BA00039F004C08BE005C08AE003C080E001C0DA
:100BB0008CE0811709F475C0602F7A89CE010A96FE
:100BC00012DC882309F46DC08A85803109F469C07C
:100BD0001B3041F01C3021F01A3031F49D8205C0E9
:100BE000BD8203C0ED8201C0AD828091BE009091B4
:100BF000BF00C7DBBE01665F7F4F8091BE00909152
:100C0000BF0094DB40E06EE48091BE009091BF0095
:100C100055DB40E06B818091BE009091BF004EDBC0
:100C200040E06C818091BE009091BF0047DB8A85D7
:100C3000803139F040E06D818091BE009091BF001D
:100C40003DDB8091BE009091BF009BDBBE01665FE3
:100C50007F4F8091BE009091BF0068DB4091B9004A
:100C600068E48091BE009091BF0028DB64E170E0F1
:100C700080E090E055DD8091B900882329F06AE09A
:100C800070E080E090E04CDD8091BE009091BF006C
:100C900078DB8091BA00F12E181708F4F82EF09244
:100CA000BA005FEFC51AD50A51CF10E0212E10E02F
:100CB000312E03DD80918100882309F432C181E067
:100CC00067DA9BDA9ADA5C0180E062DA8CE087B955
:100CD00001DD7B01B2E04B2E512C612C712CEDDC3F
:100CE000F9DC6E197F09683E7340C8F3E1E04E1AE3
:100CF000510861087108F8E1EF1AFCEFFF0A41148E
:100D000051046104710459F7369A3699FECF24B123
:100D100085B130E0382B032E000C440B550B64EBEF
:100D20007BE281E190E09DD1CA01B901C1D220E00E
:100D300030E040EC50E448D320E030E84BEB55E4A1
:100D40004DD220E030E0A901E5D16B017C01B50175
:100D5000BB0C880B990BACD29B01AC01C701B6014F
:100D600033D320E030E040E85AE32ED34B015C015E
:100D700020E030EC42E054E427D32B013C01A501F4
:100D80009401C701B601C5D19B01AC01C301B201F9
:100D900025D220E030E048EB51E4BBD160937400F1
:100DA0007093750080937600909377008091BE00D9
:100DB0009091BF00E6DA40E06CEC8091BE0090912B
:100DC000BF007CDA4091B90064E48091BE0090914C
:100DD000BF0074DA8091BB00882309F447C0E0911A
:100DE000BA00E950E33040F4F0E0EE0FFF1FE05AA4
:100DF000FF4F6081718102C06EEE72E08091BC0095
:100E0000882379F18091B90081112BC08FB7F894B4
:100E10008090830090908400A0908500B090860020
:100E20008FBF6B01770FEE08FF088091BE00909195
:100E3000BF00EED98130D1F02FB7F89480918300B4
:100E400090918400A0918500B09186002FBF8C19ED
:100E50009D09AE09BF0988159905AA05BB0528F3A8
:100E600005C0072E000C880B990B5ADC60E0CE0100
:100E70000A9624DB811105C060E070E08EEF92ECF1
:100E800046C0602F7A89CE010A96ADDA882361F1D7
:100E9000698170E0E3E0660F771FEA95E1F78A81E8
:100EA00090E0982F8827990F990F990F9B01282B75
:100EB000392B8A858031D9F4688570E08F81AB0148
:100EC000481B5109CA019695982F882797958795B1
:100ED000B5D060517109207F53E0220F331F5A951E
:100EE000E1F7620F731F04C060E874EE01C0B9013E
:100EF000613854EE75070CF4BFCF072E000C880B39
:100F0000990BD6D120E030E040E05CE35DD2609305
:100F100078007093790080937A0090937B00109210
:100F2000810080918000882331F19BDB80937C00DD
:100F300098DB80937D0095DB80937E0092DB80932D
:100F40007F008CE7E82E80E0F82EC12CD12CF70131
:100F500061917F01C6016B8BA2D26B89681711F07A
:100F6000C601A5D2FFEFCF1ADF0A44E0C416D104B0
:100F700071F7109280002114310409F49ACE40D800
:100F800098CECF93DF93EAE3F1E02491E4E3F1E03C
:100F900084918823C1F090E0880F991FFC01EC5DDB
:100FA000FF4FC591D491FC01E65DFE4FA591B49130
:100FB0009FB7F8948881E22FE0958E2388838C91E7
:100FC000E823EC939FBFEAE3F1E0E491E09366004D
:100FD000E4E3F1E0E491F0E0EE0FFF1FE25EFF4F8B
:100FE00085919491909368008093670010927100AE
:100FF0001092730010927200E1E7F0E0129280E02C
:10100000E936F807D9F787E091E09093CB00809319
:10101000CA0086E690E09093BF008093BE001092D5
:10102000BD001092B90089E08093BA0081E08093FE
:10103000BB008093BC00DF91CF91089597FB072EF2
:1010400016F4009406D077FD08D027D007FC05D011
:101050003EF4909581959F4F0895709561957F4FCF
:101060000895052E97FB16F400940FD057FD05D078
:1010700028D007FC02D046F408C050954095309522
:1010800021953F4F4F4F5F4F0895909580957095F4
:1010900061957F4F8F4F9F4F0895AA1BBB1B51E156
:1010A00007C0AA1FBB1FA617B70710F0A61BB70BD8
:1010B000881F991F5A95A9F780959095BC01CD017D
:1010C0000895A1E21A2EAA1BBB1BFD010DC0AA1F89
:1010D000BB1FEE1FFF1FA217B307E407F50720F0A1
:1010E000A21BB30BE40BF50B661F771F881F991F1C
:1010F0001A9469F760957095809590959B01AC0165
:10110000BD01CF010895EE0FFF1F0590F491E02D72
:1011100009945058BB27AA270ED01CC10DD130F01E
:1011200012D120F031F49F3F11F41EF402C10EF4ED
:10113000E095E7FBF8C0E92F1ED180F3BA176207EC
:1011400073078407950718F071F49EF536C10EF405
:10115000E0950B2EBA2FA02D0B01B90190010C01C7
:10116000CA01A0011124FF27591B99F0593F50F4DF
:10117000503E68F11A16F040A22F232F342F442737
:10118000585FF3CF469537952795A795F04053952F
:10119000C9F77EF41F16BA0B620B730B840BBAF0FF
:1011A0009150A1F0FF0FBB1F661F771F881FC2F76A
:1011B0000EC0BA0F621F731F841F48F4879577957E
:1011C0006795B795F7959E3F08F0B3CF9395880F35
:1011D00008F09927EE0F9795879508950CD0BAC01F
:1011E000B2D040F0A9D030F021F45F3F19F09BC09D
:1011F0005111E4C09EC0BFD098F39923C9F3552381
:10120000B1F3951B550BBB27AA27621773078407F9
:1012100038F09F5F5F4F220F331F441FAA1FA9F3AF
:1012200033D00E2E3AF0E0E830D091505040E695A1
:10123000001CCAF729D0FE2F27D0660F771F881F02
:10124000BB1F261737074807AB07B0E809F0BB0BF1
:10125000802DBF01FF2793585F4F2AF09E3F510515
:1012600068F061C0ABC05F3FECF3983EDCF386955D
:1012700077956795B795F7959F5FC9F7880F911D8B
:101280009695879597F90895E1E0660F771F881F77
:10129000BB1F621773078407BA0720F0621B730B2A
:1012A000840BBA0BEE1F88F7E0950895E89409C007
:1012B00097FB3EF490958095709561957F4F8F4F89
:1012C0009F4F9923A9F0F92F96E9BB279395F6959F
:1012D000879577956795B795F111F8CFFAF4BB0F1D
:1012E00011F460FF1BC06F5F7F4F8F4F9F4F16C081
:1012F000882311F096E911C0772321F09EE8872F0B
:10130000762F05C0662371F096E8862F70E060E0C6
:101310002AF09A95660F771F881FDAF7880F96953F
:10132000879597F9089597F99F6780E870E060E0E6
:1013300008959FEF80EC089500240A94161617066E
:1013400018060906089500240A94121613061406B6
:1013500005060895092E0394000C11F4882352F019
:10136000BB0F40F4BF2B11F460FF04C06F5F7F4FD1
:101370008F4F9F4F089557FD9058440F551F59F0B8
:101380005F3F71F04795880F97FB991F61F09F3F72
:1013900079F087950895121613061406551FF2CF9B
:1013A0004695F1DF08C0161617061806991FF1CFEB
:1013B00086957105610508940895E894BB27662712
:1013C0007727CB0197F908950AD0C4CFB5DF28F06D
:1013D000BADF18F0952309F0A6CFABCFEFCFCBDF64
:1013E000A8F39923D9F35523C9F3950F50E0551F5E
:1013F000AA27EE27FF27BB2700240894679520F42F
:10140000E20FF31FB41F0A1E220F331F441FAA1F2F
:101410006695A9F7779530F4F30FB41F0A1E121ED4
:1014200008F46395330F441FAA1F221F769599F77E
:10143000879520F4B40F0A1E121E631F440FAA1FC3
:10144000221F331F8695A9F7862F712D602D112439
:101450009F5750408AF0E1F088234AF0EE0FFF1FBB
:10146000BB1F661F771F881F91505040A9F79E3FF2
:10147000510570F058CFA2CF5F3FECF3983EDCF3FC
:10148000869577956795B795F795E7959F5FC1F72F
:10149000FE2B880F911D9695879597F90895E199F0
:1014A000FECF9FBB8EBBE09A99278DB30895262F60
:1014B000E199FECF1CBA9FBB8EBB2DBB0FB6F89433
:0E14C000E29AE19A0FBE01960895F894FFCFCC
:0614CE005E00BC00770186
:00000001FF
